{
  "contractName": "Landlord",
  "abi": [
    {
      "inputs": [
        {
          "internalType": "contract Token",
          "name": "_token_address",
          "type": "address"
        }
      ],
      "stateMutability": "nonpayable",
      "type": "constructor"
    },
    {
      "anonymous": false,
      "inputs": [
        {
          "indexed": false,
          "internalType": "uint256",
          "name": "landX",
          "type": "uint256"
        },
        {
          "indexed": false,
          "internalType": "uint256",
          "name": "landY",
          "type": "uint256"
        },
        {
          "indexed": false,
          "internalType": "address",
          "name": "by",
          "type": "address"
        },
        {
          "indexed": false,
          "internalType": "uint256",
          "name": "price",
          "type": "uint256"
        }
      ],
      "name": "LandClaimed",
      "type": "event"
    },
    {
      "anonymous": false,
      "inputs": [
        {
          "indexed": false,
          "internalType": "uint256",
          "name": "landX",
          "type": "uint256"
        },
        {
          "indexed": false,
          "internalType": "uint256",
          "name": "landY",
          "type": "uint256"
        },
        {
          "indexed": false,
          "internalType": "address",
          "name": "from",
          "type": "address"
        },
        {
          "indexed": false,
          "internalType": "address",
          "name": "to",
          "type": "address"
        },
        {
          "indexed": false,
          "internalType": "uint256",
          "name": "oldPrice",
          "type": "uint256"
        },
        {
          "indexed": false,
          "internalType": "uint256",
          "name": "newPrice",
          "type": "uint256"
        }
      ],
      "name": "LandSeized",
      "type": "event"
    },
    {
      "inputs": [
        {
          "internalType": "bytes32",
          "name": "",
          "type": "bytes32"
        }
      ],
      "name": "landPrices",
      "outputs": [
        {
          "internalType": "uint256",
          "name": "",
          "type": "uint256"
        }
      ],
      "stateMutability": "view",
      "type": "function",
      "constant": true
    },
    {
      "inputs": [
        {
          "internalType": "uint256",
          "name": "",
          "type": "uint256"
        }
      ],
      "name": "landToOwner",
      "outputs": [
        {
          "internalType": "address",
          "name": "",
          "type": "address"
        }
      ],
      "stateMutability": "view",
      "type": "function",
      "constant": true
    },
    {
      "inputs": [
        {
          "internalType": "uint256",
          "name": "",
          "type": "uint256"
        }
      ],
      "name": "lands",
      "outputs": [
        {
          "internalType": "uint256",
          "name": "x",
          "type": "uint256"
        },
        {
          "internalType": "uint256",
          "name": "y",
          "type": "uint256"
        }
      ],
      "stateMutability": "view",
      "type": "function",
      "constant": true
    },
    {
      "inputs": [
        {
          "internalType": "address",
          "name": "",
          "type": "address"
        }
      ],
      "name": "ownedLandCount",
      "outputs": [
        {
          "internalType": "uint256",
          "name": "",
          "type": "uint256"
        }
      ],
      "stateMutability": "view",
      "type": "function",
      "constant": true
    },
    {
      "inputs": [
        {
          "internalType": "uint256",
          "name": "_x",
          "type": "uint256"
        },
        {
          "internalType": "uint256",
          "name": "_y",
          "type": "uint256"
        }
      ],
      "name": "getLandPrice",
      "outputs": [
        {
          "internalType": "uint256",
          "name": "",
          "type": "uint256"
        }
      ],
      "stateMutability": "view",
      "type": "function",
      "constant": true
    },
    {
      "inputs": [],
      "name": "getAllLandIds",
      "outputs": [
        {
          "internalType": "uint256[]",
          "name": "",
          "type": "uint256[]"
        }
      ],
      "stateMutability": "view",
      "type": "function",
      "constant": true
    },
    {
      "inputs": [
        {
          "internalType": "address",
          "name": "_owner",
          "type": "address"
        }
      ],
      "name": "getLandsByOwner",
      "outputs": [
        {
          "internalType": "uint256[]",
          "name": "",
          "type": "uint256[]"
        }
      ],
      "stateMutability": "view",
      "type": "function",
      "constant": true
    },
    {
      "inputs": [
        {
          "internalType": "uint256",
          "name": "_x",
          "type": "uint256"
        },
        {
          "internalType": "uint256",
          "name": "_y",
          "type": "uint256"
        }
      ],
      "name": "getLandIdByCoord",
      "outputs": [
        {
          "internalType": "uint256",
          "name": "",
          "type": "uint256"
        },
        {
          "internalType": "bool",
          "name": "",
          "type": "bool"
        }
      ],
      "stateMutability": "view",
      "type": "function",
      "constant": true
    },
    {
      "inputs": [
        {
          "internalType": "uint256",
          "name": "_x",
          "type": "uint256"
        },
        {
          "internalType": "uint256",
          "name": "_y",
          "type": "uint256"
        }
      ],
      "name": "landHash",
      "outputs": [
        {
          "internalType": "bytes32",
          "name": "",
          "type": "bytes32"
        }
      ],
      "stateMutability": "pure",
      "type": "function",
      "constant": true
    },
    {
      "inputs": [
        {
          "internalType": "uint256",
          "name": "_x",
          "type": "uint256"
        },
        {
          "internalType": "uint256",
          "name": "_y",
          "type": "uint256"
        }
      ],
      "name": "claimLand",
      "outputs": [],
      "stateMutability": "payable",
      "type": "function",
      "payable": true
    },
    {
      "inputs": [
        {
          "internalType": "uint256",
          "name": "_x",
          "type": "uint256"
        },
        {
          "internalType": "uint256",
          "name": "_y",
          "type": "uint256"
        }
      ],
      "name": "seizeLand",
      "outputs": [],
      "stateMutability": "payable",
      "type": "function",
      "payable": true
    }
  ],
  "bytecode": "0x608060405234801561001057600080fd5b50604051610f09380380610f098339818101604052602081101561003357600080fd5b810190808051906020019092919050505080600460006101000a81548173ffffffffffffffffffffffffffffffffffffffff021916908373ffffffffffffffffffffffffffffffffffffffff16021790555050610e74806100956000396000f3fe60806040526004361061009c5760003560e01c8063569309f911610064578063569309f9146102895780635f28c6bf146102ee578063c01d54a914610353578063d7dee192146103ac578063e261f1e514610418578063ef6f1a2f1461046e5761009c565b806309c38117146100a157806326d6b2bd146100d95780632af28848146101325780632c967c7e14610181578063455b9d23146101e3575b600080fd5b6100d7600480360360408110156100b757600080fd5b8101908080359060200190929190803590602001909291905050506104a6565b005b3480156100e557600080fd5b5061011c600480360360408110156100fc57600080fd5b81019080803590602001909291908035906020019092919050505061082e565b6040518082815260200191505060405180910390f35b34801561013e57600080fd5b5061016b6004803603602081101561015557600080fd5b8101908080359060200190929190505050610867565b6040518082815260200191505060405180910390f35b34801561018d57600080fd5b506101c4600480360360408110156101a457600080fd5b81019080803590602001909291908035906020019092919050505061087f565b6040518083815260200182151581526020019250505060405180910390f35b3480156101ef57600080fd5b506102326004803603602081101561020657600080fd5b81019080803573ffffffffffffffffffffffffffffffffffffffff169060200190929190505050610911565b6040518080602001828103825283818151815260200191508051906020019060200280838360005b8381101561027557808201518184015260208101905061025a565b505050509050019250505060405180910390f35b34801561029557600080fd5b506102d8600480360360208110156102ac57600080fd5b81019080803573ffffffffffffffffffffffffffffffffffffffff169060200190929190505050610a4f565b6040518082815260200191505060405180910390f35b3480156102fa57600080fd5b506103276004803603602081101561031157600080fd5b8101908080359060200190929190505050610a67565b604051808273ffffffffffffffffffffffffffffffffffffffff16815260200191505060405180910390f35b34801561035f57600080fd5b506103966004803603604081101561037657600080fd5b810190808035906020019092919080359060200190929190505050610a9a565b6040518082815260200191505060405180910390f35b3480156103b857600080fd5b506103c1610ac1565b6040518080602001828103825283818151815260200191508051906020019060200280838360005b838110156104045780820151818401526020810190506103e9565b505050509050019250505060405180910390f35b34801561042457600080fd5b506104516004803603602081101561043b57600080fd5b8101908080359060200190929190505050610b50565b604051808381526020018281526020019250505060405180910390f35b6104a46004803603604081101561048457600080fd5b810190808035906020019092919080359060200190929190505050610b84565b005b818160006104b4838361082e565b9050600060036000838152602001908152602001600020541161053f576040517f08c379a000000000000000000000000000000000000000000000000000000000815260040180806020018281038252601b8152602001807f6c616e64206973206e6f74206f776e656420627920616e796f6e65000000000081525060200191505060405180910390fd5b600061054b8686610a9a565b90508034116105a5576040517f08c379a000000000000000000000000000000000000000000000000000000000815260040180806020018281038252602e815260200180610e11602e913960400191505060405180910390fd5b6000806105b2888861087f565b809250819350505080610610576040517f08c379a000000000000000000000000000000000000000000000000000000000815260040180806020018281038252602f815260200180610de2602f913960400191505060405180910390fd5b60006001600084815260200190815260200160002060009054906101000a900473ffffffffffffffffffffffffffffffffffffffff1690508073ffffffffffffffffffffffffffffffffffffffff166108fc6064605a87028161066f57fe5b049081150290604051600060405180830381858888f1935050505015801561069b573d6000803e3d6000fd5b50336001600085815260200190815260200160002060006101000a81548173ffffffffffffffffffffffffffffffffffffffff021916908373ffffffffffffffffffffffffffffffffffffffff160217905550600260003373ffffffffffffffffffffffffffffffffffffffff1673ffffffffffffffffffffffffffffffffffffffff16815260200190815260200160002060008154809291906001019190505550600260008273ffffffffffffffffffffffffffffffffffffffff1673ffffffffffffffffffffffffffffffffffffffff1681526020019081526020016000206000815480929190600190039190505550610798898934610dbb565b7f14fa8918e1d4e4f68819b920c2b4d1b825ae144fb0d33a39666fe6754c92cf20898983338834604051808781526020018681526020018573ffffffffffffffffffffffffffffffffffffffff1681526020018473ffffffffffffffffffffffffffffffffffffffff168152602001838152602001828152602001965050505050505060405180910390a1505050505050505050565b60008282604051602001808381526020018281526020019250505060405160208183030381529060405280519060200120905092915050565b60036020528060005260406000206000915090505481565b6000806000806000905060005b6000805490508110156109015786600082815481106108a757fe5b9060005260206000209060020201600001541480156108e3575085600082815481106108cf57fe5b906000526020600020906002020160010154145b156108f45780925060019150610901565b808060010191505061088c565b5081819350935050509250929050565b60606000600260008473ffffffffffffffffffffffffffffffffffffffff1673ffffffffffffffffffffffffffffffffffffffff1681526020019081526020016000205467ffffffffffffffff8111801561096b57600080fd5b5060405190808252806020026020018201604052801561099a5781602001602082028036833780820191505090505b5090506000805b600080549050811015610a44578473ffffffffffffffffffffffffffffffffffffffff166001600083815260200190815260200160002060009054906101000a900473ffffffffffffffffffffffffffffffffffffffff1673ffffffffffffffffffffffffffffffffffffffff161415610a375780838381518110610a2257fe5b60200260200101818152505081806001019250505b80806001019150506109a1565b508192505050919050565b60026020528060005260406000206000915090505481565b60016020528060005260406000206000915054906101000a900473ffffffffffffffffffffffffffffffffffffffff1681565b600060036000610aaa858561082e565b815260200190815260200160002054905092915050565b60606000808054905067ffffffffffffffff81118015610ae057600080fd5b50604051908082528060200260200182016040528015610b0f5781602001602082028036833780820191505090505b50905060005b600080549050811015610b485780828281518110610b2f57fe5b6020026020010181815250508080600101915050610b15565b508091505090565b60008181548110610b6057600080fd5b90600052602060002090600202016000915090508060000154908060010154905082565b81816000610b92838361082e565b90506000600360008381526020019081526020016000205414610c1d576040517f08c379a00000000000000000000000000000000000000000000000000000000081526004018080602001828103825260158152602001807f6c616e6420697320616c7265616479206f776e6564000000000000000000000081525060200191505060405180910390fd5b6000604051806040016040528087815260200186815250905060008190806001815401808255809150506001900390600052602060002090600202016000909190919091506000820151816000015560208201518160010155505060006001600080549050039050336001600083815260200190815260200160002060006101000a81548173ffffffffffffffffffffffffffffffffffffffff021916908373ffffffffffffffffffffffffffffffffffffffff1602179055506000610ce3888861082e565b9050346003600083815260200190815260200160002081905550600260003373ffffffffffffffffffffffffffffffffffffffff1673ffffffffffffffffffffffffffffffffffffffff168152602001908152602001600020600081548092919060010191905055507fbfa612da04d3371cdd9c9f592c5a4b1d9b2b22a631806c8a13c1b3685449149b88883334604051808581526020018481526020018373ffffffffffffffffffffffffffffffffffffffff16815260200182815260200194505050505060405180910390a15050505050505050565b8060036000610dca868661082e565b81526020019081526020016000208190555050505056fe6c616e642069736e2774206f776e656420627920616e796f6e652c20676f20636c61696d20697420696e73746561646d7573742062757920666f72206d6f7265207468616e207468652070726576696f7573206c616e64207072696365a2646970667358221220fd8f78b5b8366f3f7ef46575cae05268ab86c1f15bbeb728bc92c3547a76369b64736f6c63430007060033",
  "immutableReferences": {},
  "source": "// SPDX-License-Identifier: MIT\npragma solidity >=0.6.0 <0.8.0;\n\nimport \"./Token.sol\";\n// import \"@openzeppelin/contracts/math/SafeMath.sol\";\n\ncontract Landlord {\n  // using SafeMath for uint;\n\n  event LandClaimed (uint landX, uint landY, address by, uint price);\n  event LandSeized  (uint landX, uint landY, address from, address to, uint oldPrice, uint newPrice);\n\n  struct Land {\n    uint x;\n    uint y;\n  }\n  Land[] public lands; // index is land id\n\n  mapping (uint => address) public landToOwner; // land id to owner\n  mapping (address => uint) public ownedLandCount;\n\n  mapping (bytes32 => uint) public landPrices; // land hash to land price\n\n\n  Token private token;\n\n  constructor(Token _token_address) {\n    token = _token_address;\n  }\n\n  function getLandPrice(uint _x, uint _y) public view returns(uint) {\n    return landPrices[landHash(_x, _y)];\n  }\n\n  function setLandPrice(uint _x, uint _y, uint _newPrice) private {\n    landPrices[landHash(_x, _y)] = _newPrice;\n  }\n\n\n\n  function getAllLandIds() external view returns(uint[] memory) {\n    uint[] memory result = new uint[](lands.length);\n    for (uint i = 0; i < lands.length; i++) {\n      result[i] = i;\n    }\n    return result;\n  }\n\n  function getLandsByOwner(address _owner) external view returns(uint[] memory) {\n    uint[] memory result = new uint[](ownedLandCount[_owner]);\n    uint counter = 0;\n    for (uint i = 0; i < lands.length; i++) {\n      if (address(uint160(landToOwner[i])) == _owner) {\n        result[counter] = i;\n        counter++;\n      }\n    }\n    return result;\n  }\n\n  function getLandIdByCoord(uint _x, uint _y) public view returns(uint, bool) {\n    uint landId;\n    bool exists = false;\n    for (uint i = 0; i < lands.length; i++) {\n      if (lands[i].x == _x && lands[i].y == _y) {\n        landId = i;\n        exists = true;\n        break;\n      }\n    }\n    return (landId, exists);\n  }\n\n\n\n  function landHash(uint _x, uint _y) public pure returns(bytes32) {\n    return keccak256(abi.encodePacked(_x, _y));\n  }\n\n  modifier ownedLand(uint _x, uint _y) {\n    bytes32 targetLandHash = landHash(_x, _y);\n    require(landPrices[targetLandHash] > 0, \"land is not owned by anyone\");\n    _;\n  }\n\n  modifier unownedLand(uint _x, uint _y) {\n    bytes32 targetLandHash = landHash(_x, _y);\n    require(landPrices[targetLandHash] == 0, \"land is already owned\");\n    _;\n  }\n\n\n\n  function claimLand(uint _x, uint _y) payable external unownedLand(_x, _y) {\n    // create land\n    Land memory targetLand = Land(_x, _y);\n    lands.push(targetLand);\n\n    // assign owner\n    uint _landId = lands.length - 1;\n    landToOwner[_landId] = msg.sender;\n\n    // assign price\n    bytes32 targetLandHash = landHash(_x, _y);\n    landPrices[targetLandHash] = msg.value;\n\n    // increase owner land count\n    ownedLandCount[msg.sender]++;\n\n    emit LandClaimed(_x, _y, msg.sender, msg.value);\n  }\n\n  function seizeLand(uint _x, uint _y) payable external ownedLand(_x, _y) {\n    // must be more expensive\n    uint oldPrice = getLandPrice(_x, _y);\n    require(msg.value > oldPrice, \"must buy for more than the previous land price\");\n    \n    // must exist (actually a redundant check after ownedLand) and get the id\n    uint landId;\n    bool exists;\n    (landId, exists) = getLandIdByCoord(_x, _y);\n    require(exists, \"land isn't owned by anyone, go claim it instead\");\n\n    // get old owner\n    address payable oldOwner = address(uint160(landToOwner[landId])); // wierd workaround typecast\n\n    // refund the old owner a fraction of the price they originally paid\n    oldOwner.transfer(oldPrice * 90/100);\n\n    // change ownership to new owner\n    landToOwner[landId] = msg.sender;\n    ownedLandCount[msg.sender]++;\n    ownedLandCount[oldOwner]--;\n    // update the new land price\n    setLandPrice(_x, _y, msg.value);\n    \n    emit LandSeized(_x, _y, oldOwner, msg.sender, oldPrice, msg.value);\n  }\n\n\n\n}",
  "sourcePath": "/var/git/projects/gdp/dbank/src/contracts/Landlord.sol",
  "compiler": {
    "name": "solc",
    "version": "0.7.6+commit.7338295f.Emscripten.clang"
  },
  "schemaVersion": "3.2.3",
  "updatedAt": "2021-10-31T14:34:22.885Z",
  "networkType": "ethereum",
  "devdoc": {
    "kind": "dev",
    "methods": {},
    "version": 1
  },
  "userdoc": {
    "kind": "user",
    "methods": {},
    "version": 1
  }
}